S00D00004C616230362E73726563A2
S113000045C000009DC100005EC000005CC000004F
S11300105AC0000058C0000056C0000054C0000080
S113002052C0000050C000004EC000004CC0000090
S11300304AC0000048C0000046C0000044C00000A0
S113004052C1000040C000003EC000003CC000009F
S11300503AC0000038C0000036C0000034C00000C0
S113006032C0000030C000002EC000002CC00000D0
S11300702AC0000028C0000026C0000024C00000E0
S113008022C0000020C000001EC0000011241FBEBA
S1130090CFEFD0E1DEBFCDBF11E0A0E0B1E0ECEBEB
S11300A0F3E000E00BBF02C007900D92A030B1074F
S11300B0D9F721E0A0E0B1E001C01D92A330B2075E
S11300C0E1F702D079C19CCFCF93DF9300D0CDB7B5
S11300D0DEB7198281E08A83109201011092020135
S11300E0109200018AE390E02FEFFC0120838BE360
S11300F090E02FEFFC01208383E590E024E0FC01F5
S1130100208382E590E02EE8FC01208387E590E0DF
S113011021E0FC01208387E390E027E330E0F9014C
S113012020812E7FFC01208388E390E028E330E0E7
S1130130F90120812160FC01208381E390E021E327
S113014030E0F90120812E7FFC0120838AE690E0D3
S113015023E0FC01208389E590E021E0FC01208379
S1130160789480910001882399F0109200011092F4
S1130170020181E08A8380910101813019F487E0D2
S1130180898301C019828BE390E02FEFFC01208367
S113019080910201823328F31092020180910101BF
S11301A0882F90E08130910529F1823091051CF46B
S11301B0892B41F097C082309105A9F1039709F486
S11301C05CC090C08BE390E02981422F50E021E095
S11301D030E002C0220F331F4A95E2F72095FC015C
S11301E0208389818F5F89838981883008F477C06F
S11301F0198275C08BE390E02981422F50E021E001
S113020030E002C0220F331F4A95E2F72095FC012B
S113021020838981882319F487E0898363C08981D5
S1130220815089835FC08BE390E02981422F50E0A5
S113023021E030E002C0220F331F4A95E2F72095F7
S1130240FC0120838A81813061F48981873029F41B
S11302508FEF8A8386E0898345C089818F5F898394
S113026041C08981882329F481E08A8381E08983DC
S113027039C089818150898335C08981882F90E074
S11302808130910591F0823091051CF4892B39F06D
S11302901EC08230910579F0039799F018C08BE362
S11302A090E02EE7FC01208312C08BE390E02DEB5D
S11302B0FC0120830CC08BE390E02BEDFC01208338
S11302C006C08BE390E027EEFC01208300008981C7
S11302D08F5F89838981843020F0198202C00000F5
S11302E040CF00003ECF1F920F9200905F000F920C
S11302F0112400905B000F922F938F939F93EF93A1
S1130300FF93CF93DF93CDB7DEB7809102018F5F68
S11303108093020182E590E02EE8FC012083000036
S1130320DF91CF91FF91EF919F918F912F910F903A
S113033000925B000F9000925F000F901F90189541
S11303401F920F9200905F000F9211248F939F933E
S1130350CF93DF93CDB7DEB780910101882F90E072
S11303608130910581F0823091051CF4892B39F09C
S113037015C08230910559F0039769F00FC081E0F0
S1130380809301010BC082E08093010107C083E0E8
S11303908093010103C010920101000081E0809369
S11303A000010000DF91CF919F918F910F900092F7
S10F03B05F000F901F901895F894FFCF89
S9030000FC
